:020000040000FA
:020000002928AD
:040002000034003492
:080008008B138B1C0D288B10DB
:1000100083162030810683122728B10A3108143A4A
:10002000031D242814202728B1013008452086000C
:10003000B00AA70B0800B1010130A700B003B0035C
:1000400030084520860008000B113D3081008B13DD
:1000500009008B170B168B168316811381128111E1
:10006000011581140114061486100611861106125A
:100070008612061386138312860100308100073032
:10008000B000B1011130A700442882070730B0004A
:100090001130A7007F34080046287F340C34B63472
:1000A0009E34CC34DA34FA340E34FE34DE34EE349A
:0C00B000F8347234BC34F234E23408003E
:00000001FF
